{
  "_format": "hh-sol-artifact-1",
  "contractName": "ImmiVaultEscrow",
  "sourceName": "contracts/ImmiVaultEscrow.sol",
  "abi": [
    {
      "inputs": [
        {
          "internalType": "address",
          "name": "_usdc",
          "type": "address"
        },
        {
          "internalType": "address",
          "name": "_treasury",
          "type": "address"
        }
      ],
      "stateMutability": "nonpayable",
      "type": "constructor"
    },
    {
      "anonymous": false,
      "inputs": [
        {
          "indexed": true,
          "internalType": "bytes32",
          "name": "cidHash",
          "type": "bytes32"
        },
        {
          "indexed": true,
          "internalType": "address",
          "name": "contributor",
          "type": "address"
        },
        {
          "indexed": false,
          "internalType": "uint256",
          "name": "amount",
          "type": "uint256"
        }
      ],
      "name": "EscrowReleased",
      "type": "event"
    },
    {
      "anonymous": false,
      "inputs": [
        {
          "indexed": true,
          "internalType": "bytes32",
          "name": "cidHash",
          "type": "bytes32"
        },
        {
          "indexed": true,
          "internalType": "address",
          "name": "contributor",
          "type": "address"
        },
        {
          "indexed": false,
          "internalType": "uint256",
          "name": "amount",
          "type": "uint256"
        }
      ],
      "name": "EscrowSlashed",
      "type": "event"
    },
    {
      "anonymous": false,
      "inputs": [
        {
          "indexed": true,
          "internalType": "bytes32",
          "name": "cidHash",
          "type": "bytes32"
        },
        {
          "indexed": true,
          "internalType": "address",
          "name": "contributor",
          "type": "address"
        },
        {
          "indexed": false,
          "internalType": "uint256",
          "name": "amount",
          "type": "uint256"
        }
      ],
      "name": "StakeDeposited",
      "type": "event"
    },
    {
      "anonymous": false,
      "inputs": [
        {
          "indexed": true,
          "internalType": "bytes32",
          "name": "cidHash",
          "type": "bytes32"
        },
        {
          "indexed": true,
          "internalType": "address",
          "name": "voter",
          "type": "address"
        },
        {
          "indexed": false,
          "internalType": "bool",
          "name": "approve",
          "type": "bool"
        }
      ],
      "name": "TrustVote",
      "type": "event"
    },
    {
      "inputs": [],
      "name": "AUTO_RELEASE_DURATION",
      "outputs": [
        {
          "internalType": "uint256",
          "name": "",
          "type": "uint256"
        }
      ],
      "stateMutability": "view",
      "type": "function"
    },
    {
      "inputs": [],
      "name": "REQUIRED_APPROVALS",
      "outputs": [
        {
          "internalType": "uint256",
          "name": "",
          "type": "uint256"
        }
      ],
      "stateMutability": "view",
      "type": "function"
    },
    {
      "inputs": [],
      "name": "REQUIRED_FLAGS",
      "outputs": [
        {
          "internalType": "uint256",
          "name": "",
          "type": "uint256"
        }
      ],
      "stateMutability": "view",
      "type": "function"
    },
    {
      "inputs": [],
      "name": "STAKE_AMOUNT",
      "outputs": [
        {
          "internalType": "uint256",
          "name": "",
          "type": "uint256"
        }
      ],
      "stateMutability": "view",
      "type": "function"
    },
    {
      "inputs": [
        {
          "internalType": "bytes32",
          "name": "cidHash",
          "type": "bytes32"
        }
      ],
      "name": "claimAutoRelease",
      "outputs": [],
      "stateMutability": "nonpayable",
      "type": "function"
    },
    {
      "inputs": [
        {
          "internalType": "address",
          "name": "",
          "type": "address"
        },
        {
          "internalType": "uint256",
          "name": "",
          "type": "uint256"
        }
      ],
      "name": "contributorEscrows",
      "outputs": [
        {
          "internalType": "bytes32",
          "name": "",
          "type": "bytes32"
        }
      ],
      "stateMutability": "view",
      "type": "function"
    },
    {
      "inputs": [
        {
          "internalType": "bytes32",
          "name": "",
          "type": "bytes32"
        }
      ],
      "name": "escrows",
      "outputs": [
        {
          "internalType": "address",
          "name": "contributor",
          "type": "address"
        },
        {
          "internalType": "uint256",
          "name": "stakeAmount",
          "type": "uint256"
        },
        {
          "internalType": "uint256",
          "name": "stakedAt",
          "type": "uint256"
        },
        {
          "internalType": "enum ImmiVaultEscrow.EscrowStatus",
          "name": "status",
          "type": "uint8"
        },
        {
          "internalType": "uint256",
          "name": "approvalCount",
          "type": "uint256"
        },
        {
          "internalType": "uint256",
          "name": "flagCount",
          "type": "uint256"
        }
      ],
      "stateMutability": "view",
      "type": "function"
    },
    {
      "inputs": [
        {
          "internalType": "address",
          "name": "contributor",
          "type": "address"
        }
      ],
      "name": "getContributorEscrows",
      "outputs": [
        {
          "internalType": "bytes32[]",
          "name": "",
          "type": "bytes32[]"
        }
      ],
      "stateMutability": "view",
      "type": "function"
    },
    {
      "inputs": [
        {
          "internalType": "bytes32",
          "name": "cidHash",
          "type": "bytes32"
        }
      ],
      "name": "getEscrow",
      "outputs": [
        {
          "internalType": "address",
          "name": "contributor",
          "type": "address"
        },
        {
          "internalType": "uint256",
          "name": "stakeAmount",
          "type": "uint256"
        },
        {
          "internalType": "uint256",
          "name": "stakedAt",
          "type": "uint256"
        },
        {
          "internalType": "enum ImmiVaultEscrow.EscrowStatus",
          "name": "status",
          "type": "uint8"
        },
        {
          "internalType": "uint256",
          "name": "approvalCount",
          "type": "uint256"
        },
        {
          "internalType": "uint256",
          "name": "flagCount",
          "type": "uint256"
        }
      ],
      "stateMutability": "view",
      "type": "function"
    },
    {
      "inputs": [
        {
          "internalType": "bytes32",
          "name": "",
          "type": "bytes32"
        },
        {
          "internalType": "address",
          "name": "",
          "type": "address"
        }
      ],
      "name": "hasVoted",
      "outputs": [
        {
          "internalType": "bool",
          "name": "",
          "type": "bool"
        }
      ],
      "stateMutability": "view",
      "type": "function"
    },
    {
      "inputs": [
        {
          "internalType": "bytes32",
          "name": "cidHash",
          "type": "bytes32"
        }
      ],
      "name": "stakeAndRegister",
      "outputs": [],
      "stateMutability": "nonpayable",
      "type": "function"
    },
    {
      "inputs": [],
      "name": "treasury",
      "outputs": [
        {
          "internalType": "address",
          "name": "",
          "type": "address"
        }
      ],
      "stateMutability": "view",
      "type": "function"
    },
    {
      "inputs": [],
      "name": "usdc",
      "outputs": [
        {
          "internalType": "contract IERC20",
          "name": "",
          "type": "address"
        }
      ],
      "stateMutability": "view",
      "type": "function"
    },
    {
      "inputs": [
        {
          "internalType": "bytes32",
          "name": "cidHash",
          "type": "bytes32"
        },
        {
          "internalType": "bool",
          "name": "approve",
          "type": "bool"
        }
      ],
      "name": "vote",
      "outputs": [],
      "stateMutability": "nonpayable",
      "type": "function"
    }
  ],
  "bytecode": "0x60c060405234801561001057600080fd5b50604051610edb380380610edb83398101604081905261002f91610062565b6001600160a01b039182166080521660a052610095565b80516001600160a01b038116811461005d57600080fd5b919050565b6000806040838503121561007557600080fd5b61007e83610046565b915061008c60208401610046565b90509250929050565b60805160a051610e056100d6600039600081816101f20152610ab9015260008181610195015281816103df0152818161097f0152610af40152610e056000f3fe608060405234801561001057600080fd5b50600436106100ea5760003560e01c80638549d9be1161008c578063ad8eebf911610066578063ad8eebf914610265578063b3ab0c4314610278578063f023b8111461028b578063faf5625f146102db57600080fd5b80638549d9be146101cf5780639f2ce67814610214578063aadc3b721461022757600080fd5b80633e413bee116100c85780633e413bee14610190578063599c5533146101cf5780636085c066146101e557806361d027b3146101ed57600080fd5b80632d83549c146100ef5780633473e86a1461015b5780633e3b73b91461017b575b600080fd5b6101406100fd366004610bea565b6000602081905290815260409020805460018201546002830154600384015460048501546005909501546001600160a01b03909416949293919260ff9091169186565b60405161015296959493929190610c19565b60405180910390f35b61016e610169366004610c8e565b6102e5565b6040516101529190610cb0565b61018e610189366004610bea565b610351565b005b6101b77f000000000000000000000000000000000000000000000000000000000000000081565b6040516001600160a01b039091168152602001610152565b6101d7600281565b604051908152602001610152565b6101d7607881565b6101b77f000000000000000000000000000000000000000000000000000000000000000081565b61018e610222366004610d05565b6105b3565b610255610235366004610d35565b600160209081526000928352604080842090915290825290205460ff1681565b6040519015158152602001610152565b6101d7610273366004610d61565b6107f1565b61018e610286366004610bea565b610822565b610140610299366004610bea565b6000908152602081905260409020805460018201546002830154600384015460048501546005909501546001600160a01b03909416959294919360ff90911692565b6101d7620186a081565b6001600160a01b03811660009081526002602090815260409182902080548351818402810184019094528084526060939283018282801561034557602002820191906000526020600020905b815481526020019060010190808311610331575b50505050509050919050565b6000818152602081905260409020546001600160a01b0316156103bb5760405162461bcd60e51b815260206004820152601760248201527f4361736520616c7265616479207265676973746572656400000000000000000060448201526064015b60405180910390fd5b6040516323b872dd60e01b8152336004820152306024820152620186a060448201527f00000000000000000000000000000000000000000000000000000000000000006001600160a01b0316906323b872dd906064016020604051808303816000875af1158015610430573d6000803e3d6000fd5b505050506040513d601f19601f820116820180604052508101906104549190610d8b565b6104975760405162461bcd60e51b81526020600482015260146024820152731554d110c81d1c985b9cd9995c8819985a5b195960621b60448201526064016103b2565b6040805160c081018252338152620186a06020808301918252428385019081526000606085018181526080860182905260a086018290528782529281905294909420835181546001600160a01b0319166001600160a01b03909116178155915160018084019190915593516002808401919091559051600383018054949593949193909260ff1990921691849081111561053357610533610c03565b02179055506080820151600482015560a090910151600590910155336000818152600260209081526040808320805460018101825590845291909220018390555182907fb210a1e1a72c3f142ee88b3d65af2f54fdd151811a0a20bca2a082975fde0052906105a890620186a0815260200190565b60405180910390a350565b600082815260208190526040902080546001600160a01b03166106095760405162461bcd60e51b815260206004820152600e60248201526d10d85cd9481b9bdd08199bdd5b9960921b60448201526064016103b2565b6000600382015460ff16600281111561062457610624610c03565b146106665760405162461bcd60e51b8152602060048201526012602482015271457363726f77206e6f742070656e64696e6760701b60448201526064016103b2565b80546001600160a01b031633036106cb5760405162461bcd60e51b815260206004820152602360248201527f436f6e7472696275746f722063616e6e6f7420766f7465206f6e206f776e206360448201526261736560e81b60648201526084016103b2565b600083815260016020908152604080832033845290915290205460ff16156107255760405162461bcd60e51b815260206004820152600d60248201526c105b1c9958591e481d9bdd1959609a1b60448201526064016103b2565b6000838152600160208181526040808420338552909152909120805460ff1916909117905581156107845760018160040160008282546107659190610da8565b9091555050600481015460021161077f5761077f8361092e565b6107b3565b60018160050160008282546107999190610da8565b909155505060058101546002116107b3576107b383610a87565b6040518215158152339084907f937bd2b9a16b31c9e1cded99cc1cf52f03c4bce93003393f794ffe5c78df0b8b9060200160405180910390a3505050565b6002602052816000526040600020818154811061080d57600080fd5b90600052602060002001600091509150505481565b600081815260208190526040902080546001600160a01b03166108785760405162461bcd60e51b815260206004820152600e60248201526d10d85cd9481b9bdd08199bdd5b9960921b60448201526064016103b2565b6000600382015460ff16600281111561089357610893610c03565b146108d55760405162461bcd60e51b8152602060048201526012602482015271457363726f77206e6f742070656e64696e6760701b60448201526064016103b2565b607881600201546108e69190610da8565b4210156109215760405162461bcd60e51b8152602060048201526009602482015268546f6f206561726c7960b81b60448201526064016103b2565b61092a8261092e565b5050565b60008181526020819052604090206003810180546001919060ff1916828002179055508054600182015460405163a9059cbb60e01b81526001600160a01b03928316600482015260248101919091527f00000000000000000000000000000000000000000000000000000000000000009091169063a9059cbb906044016020604051808303816000875af11580156109ca573d6000803e3d6000fd5b505050506040513d601f19601f820116820180604052508101906109ee9190610d8b565b610a3a5760405162461bcd60e51b815260206004820152601760248201527f52656c65617365207472616e73666572206661696c656400000000000000000060448201526064016103b2565b805460018201546040519081526001600160a01b039091169083907f3a9c1cd29cd3be251a72ce3c367c27dc1cb697ac4589965b76a83f9a25ca0710906020015b60405180910390a35050565b6000818152602081905260409081902060038101805460ff191660021790556001810154915163a9059cbb60e01b81527f00000000000000000000000000000000000000000000000000000000000000006001600160a01b039081166004830152602482019390935290917f0000000000000000000000000000000000000000000000000000000000000000169063a9059cbb906044016020604051808303816000875af1158015610b3d573d6000803e3d6000fd5b505050506040513d601f19601f82011682018060405250810190610b619190610d8b565b610ba55760405162461bcd60e51b815260206004820152601560248201527414db185cda081d1c985b9cd9995c8819985a5b1959605a1b60448201526064016103b2565b805460018201546040519081526001600160a01b039091169083907f610dcf66c55c86f057e9f030d1a3bd5531be47a8e81984216dab8572f1663d5990602001610a7b565b600060208284031215610bfc57600080fd5b5035919050565b634e487b7160e01b600052602160045260246000fd5b6001600160a01b0387168152602081018690526040810185905260c0810160038510610c5557634e487b7160e01b600052602160045260246000fd5b8460608301528360808301528260a0830152979650505050505050565b80356001600160a01b0381168114610c8957600080fd5b919050565b600060208284031215610ca057600080fd5b610ca982610c72565b9392505050565b6020808252825182820181905260009190848201906040850190845b81811015610ce857835183529284019291840191600101610ccc565b50909695505050505050565b8015158114610d0257600080fd5b50565b60008060408385031215610d1857600080fd5b823591506020830135610d2a81610cf4565b809150509250929050565b60008060408385031215610d4857600080fd5b82359150610d5860208401610c72565b90509250929050565b60008060408385031215610d7457600080fd5b610d7d83610c72565b946020939093013593505050565b600060208284031215610d9d57600080fd5b8151610ca981610cf4565b80820180821115610dc957634e487b7160e01b600052601160045260246000fd5b9291505056fea2646970667358221220e418b8e98f2ff675b21f542486d03ff3f468e0af0f333ed58fa9fa352625dd5764736f6c63430008180033",
  "linkReferences": {},
  "deployedLinkReferences": {}
}